{
  "transactions": [
    {
      "hash": "0x0b223a6c29ac51f5ad1c324213f7242eb370ab7dfdf5421ad2c43c3c647834fb",
      "transactionType": "CREATE",
      "contractName": "Implementation",
      "contractAddress": "0x351740b0c01466cfe791b307ecc32f091dda17ef",
      "function": null,
      "arguments": null,
      "transaction": {
        "from": "0xa76b88b26ab5682b8559e7b9689b14ef602fa08f",
        "gas": "0x1d14b",
        "value": "0x0",
        "input": "0x6080604052348015600f57600080fd5b5060b180601d6000396000f3fe6080604052348015600f57600080fd5b506004361060325760003560e01c80633fa4f24514603757806355241077146051575b600080fd5b603f60005481565b60405190815260200160405180910390f35b6061605c3660046063565b600055565b005b600060208284031215607457600080fd5b503591905056fea264697066735822122096ae211af3e2ced96f88ede6476f445085dc16db15b3ec0c9746373de84a2f4b64736f6c634300081a0033",
        "nonce": "0x5a",
        "chainId": "0xaa36a7"
      },
      "additionalContracts": [],
      "isFixedGasLimit": false
    },
    {
      "hash": "0xe60ccb62a185982ee3dd65b5cd2f0e2acf6b99e684ed763ca058df5670c1cd7e",
      "transactionType": "CREATE",
      "contractName": "MinimalProxy",
      "contractAddress": "0x8c68d157690b901cd224ef7f2169b5fe78d5d0a0",
      "function": null,
      "arguments": null,
      "transaction": {
        "from": "0xa76b88b26ab5682b8559e7b9689b14ef602fa08f",
        "gas": "0x29f6c",
        "value": "0x0",
        "input": "0x6080604052348015600f57600080fd5b5061016d8061001f6000396000f3fe608060405234801561001057600080fd5b506004361061002b5760003560e01c80638124b78e14610030575b600080fd5b61004361003e366004610107565b61005f565b6040516001600160a01b03909116815260200160405180910390f35b6000604051693d602d80600a3d3981f381528260601b60148201526e5af43d82803e903d91602b57fd5bf360288201526037816000f09150506001600160a01b0381166101025760405162461bcd60e51b815260206004820152602760248201527f4d696e696d616c50726f78793a204661696c656420746f2063726561746520696044820152666e7374616e636560c81b606482015260840160405180910390fd5b919050565b60006020828403121561011957600080fd5b81356001600160a01b038116811461013057600080fd5b939250505056fea2646970667358221220c93787cdcc775cc55ad7610aea7de17e1af1c9e28b8464594179a5e38fa00f3c64736f6c634300081a0033",
        "nonce": "0x5b",
        "chainId": "0xaa36a7"
      },
      "additionalContracts": [],
      "isFixedGasLimit": false
    },
    {
      "hash": "0x6dec25db31ba2be3fe8a3f68a7afe6f4572c9d0715815f332eeb4b8e65e1ab77",
      "transactionType": "CALL",
      "contractName": "MinimalProxy",
      "contractAddress": "0x8c68d157690b901cd224ef7f2169b5fe78d5d0a0",
      "function": "clone(address)",
      "arguments": [
        "0x351740b0c01466cfE791b307ecC32f091dda17ef"
      ],
      "transaction": {
        "from": "0xa76b88b26ab5682b8559e7b9689b14ef602fa08f",
        "to": "0x8c68d157690b901cd224ef7f2169b5fe78d5d0a0",
        "gas": "0x1229c",
        "value": "0x0",
        "input": "0x8124b78e000000000000000000000000351740b0c01466cfe791b307ecc32f091dda17ef",
        "nonce": "0x5c",
        "chainId": "0xaa36a7"
      },
      "additionalContracts": [
        {
          "transactionType": "CREATE",
          "address": "0xc78f5f0cf93f1c025eb2984e26923f2a36ce96a6",
          "initCode": "0x0000000000000000000000000000000000000000351740b0c01466cfe791b307ecc32f091dda17ef000000000000000000000000000000"
        }
      ],
      "isFixedGasLimit": false
    }
  ],
  "receipts": [
    {
      "status": "0x1",
      "cumulativeGasUsed": "0x64d824",
      "logs": [],
      "logsBloom": "0x00000000000000000000000000000000000000000000000000000000000000000000000000000000000000000000000000000000000000000000000000000000000000000000000000000000000000000000000000000000000000000000000000000000000000000000000000000000000000000000000000000000000000000000000000000000000000000000000000000000000000000000000000000000000000000000000000000000000000000000000000000000000000000000000000000000000000000000000000000000000000000000000000000000000000000000000000000000000000000000000000000000000000000000000000000000",
      "type": "0x2",
      "transactionHash": "0x0b223a6c29ac51f5ad1c324213f7242eb370ab7dfdf5421ad2c43c3c647834fb",
      "transactionIndex": "0x26",
      "blockHash": "0xad8c4476214481169f72db1238cb1f9d4d967d251b1640c5f9213a195db530a9",
      "blockNumber": "0x61cb94",
      "gasUsed": "0x165f9",
      "effectiveGasPrice": "0x27757ae38",
      "from": "0xa76b88b26ab5682b8559e7b9689b14ef602fa08f",
      "to": null,
      "contractAddress": "0x351740b0c01466cfe791b307ecc32f091dda17ef"
    },
    {
      "status": "0x1",
      "cumulativeGasUsed": "0x66dcb9",
      "logs": [],
      "logsBloom": "0x00000000000000000000000000000000000000000000000000000000000000000000000000000000000000000000000000000000000000000000000000000000000000000000000000000000000000000000000000000000000000000000000000000000000000000000000000000000000000000000000000000000000000000000000000000000000000000000000000000000000000000000000000000000000000000000000000000000000000000000000000000000000000000000000000000000000000000000000000000000000000000000000000000000000000000000000000000000000000000000000000000000000000000000000000000000",
      "type": "0x2",
      "transactionHash": "0xe60ccb62a185982ee3dd65b5cd2f0e2acf6b99e684ed763ca058df5670c1cd7e",
      "transactionIndex": "0x27",
      "blockHash": "0xad8c4476214481169f72db1238cb1f9d4d967d251b1640c5f9213a195db530a9",
      "blockNumber": "0x61cb94",
      "gasUsed": "0x20495",
      "effectiveGasPrice": "0x27757ae38",
      "from": "0xa76b88b26ab5682b8559e7b9689b14ef602fa08f",
      "to": null,
      "contractAddress": "0x8c68d157690b901cd224ef7f2169b5fe78d5d0a0"
    },
    {
      "status": "0x1",
      "cumulativeGasUsed": "0x67af23",
      "logs": [],
      "logsBloom": "0x00000000000000000000000000000000000000000000000000000000000000000000000000000000000000000000000000000000000000000000000000000000000000000000000000000000000000000000000000000000000000000000000000000000000000000000000000000000000000000000000000000000000000000000000000000000000000000000000000000000000000000000000000000000000000000000000000000000000000000000000000000000000000000000000000000000000000000000000000000000000000000000000000000000000000000000000000000000000000000000000000000000000000000000000000000000",
      "type": "0x2",
      "transactionHash": "0x6dec25db31ba2be3fe8a3f68a7afe6f4572c9d0715815f332eeb4b8e65e1ab77",
      "transactionIndex": "0x28",
      "blockHash": "0xad8c4476214481169f72db1238cb1f9d4d967d251b1640c5f9213a195db530a9",
      "blockNumber": "0x61cb94",
      "gasUsed": "0xd26a",
      "effectiveGasPrice": "0x27757ae38",
      "from": "0xa76b88b26ab5682b8559e7b9689b14ef602fa08f",
      "to": "0x8c68d157690b901cd224ef7f2169b5fe78d5d0a0",
      "contractAddress": null
    }
  ],
  "libraries": [],
  "pending": [],
  "returns": {},
  "timestamp": 1722417468,
  "chain": 11155111,
  "commit": "7c36034"
}