{
  "transactions": [
    {
      "hash": null,
      "transactionType": "CREATE",
      "contractName": "DeployAndClone",
      "contractAddress": "0x5b73c5498c1e3b4dba84de0f1833c4a029d90519",
      "function": null,
      "arguments": null,
      "transaction": {
        "from": "0x1804c8ab1f12e6bbf3894d4083f33e07309d1f38",
        "gas": "0x1d14b",
        "value": "0x0",
        "input": "0x6080604052348015600f57600080fd5b5060b180601d6000396000f3fe6080604052348015600f57600080fd5b506004361060325760003560e01c80633fa4f24514603757806355241077146051575b600080fd5b603f60005481565b60405190815260200160405180910390f35b6061605c3660046063565b600055565b005b600060208284031215607457600080fd5b503591905056fea264697066735822122096ae211af3e2ced96f88ede6476f445085dc16db15b3ec0c9746373de84a2f4b64736f6c634300081a0033",
        "nonce": "0x2",
        "chainId": "0x1"
      },
      "additionalContracts": [],
      "isFixedGasLimit": false
    },
    {
      "hash": null,
      "transactionType": "CREATE",
      "contractName": null,
      "contractAddress": "0x7fa9385be102ac3eac297483dd6233d62b3e1496",
      "function": null,
      "arguments": null,
      "transaction": {
        "from": "0x1804c8ab1f12e6bbf3894d4083f33e07309d1f38",
        "gas": "0x29f6c",
        "value": "0x0",
        "input": "0x6080604052348015600f57600080fd5b5061016d8061001f6000396000f3fe608060405234801561001057600080fd5b506004361061002b5760003560e01c80638124b78e14610030575b600080fd5b61004361003e366004610107565b61005f565b6040516001600160a01b03909116815260200160405180910390f35b6000604051693d602d80600a3d3981f381528260601b60148201526e5af43d82803e903d91602b57fd5bf360288201526037816000f09150506001600160a01b0381166101025760405162461bcd60e51b815260206004820152602760248201527f4d696e696d616c50726f78793a204661696c656420746f2063726561746520696044820152666e7374616e636560c81b606482015260840160405180910390fd5b919050565b60006020828403121561011957600080fd5b81356001600160a01b038116811461013057600080fd5b939250505056fea2646970667358221220c93787cdcc775cc55ad7610aea7de17e1af1c9e28b8464594179a5e38fa00f3c64736f6c634300081a0033",
        "nonce": "0x3",
        "chainId": "0x1"
      },
      "additionalContracts": [],
      "isFixedGasLimit": false
    },
    {
      "hash": null,
      "transactionType": "CALL",
      "contractName": "MinimalProxy",
      "contractAddress": "0x90193c961a926261b756d1e5bb255e67ff9498a1",
      "function": "clone(address)",
      "arguments": [
        "0x34A1D3fff3958843C43aD80F30b94c510645C316"
      ],
      "transaction": {
        "from": "0x1804c8ab1f12e6bbf3894d4083f33e07309d1f38",
        "to": "0x90193c961a926261b756d1e5bb255e67ff9498a1",
        "gas": "0x73a2",
        "value": "0x0",
        "input": "0x8124b78e00000000000000000000000034a1d3fff3958843c43ad80f30b94c510645c316",
        "nonce": "0x4",
        "chainId": "0x1"
      },
      "additionalContracts": [],
      "isFixedGasLimit": false
    }
  ],
  "receipts": [],
  "libraries": [],
  "pending": [],
  "returns": {},
  "timestamp": 1722415959,
  "chain": 1,
  "commit": "7c36034"
}